:020000040800F2
:1000000000280020A90E0008A10D0008A70D000877
:10001000AD0D0008B30D0008B90D00080000000088
:10002000000000000000000000000000BF0D0008FC
:10003000CB0D000800000000D70D0008E30D0008FC
:10004000F10E0008F10E0008F10E0008F10E000894
:10005000F10E0008F10E0008F10D0008F10E000885
:10006000F10E0008F10E0008F10E0008F10E000874
:10007000F10E0008F10E0008F10E0008F10E000864
:10008000F10E0008F10E0008F10E0008F10E000854
:10009000F10E0008F10E0008F10E0008F10E000844
:1000A000F10E0008F10E0008F10E0008F10E000834
:1000B000F10E0008F10E000800000000F10E00082B
:1000C000F10E00080000000000000000F10E000822
:1000D00000000000F10E0008F10E00080000000012
:1000E000F10E0008F10E0008F10E000800000000FB
:1000F0000000000000000000000000000000000000
:0C01000000000000000000005FF808F1A3
:10010C0010B5054C237833B9044B13B10448AFF345
:10011C0000800123237010BD880000200000000027
:10012C00A429000808B5034B1BB103490348AFF3DE
:10013C00008008BD000000008C000020A4290008ED
:10014C00034613F8012B002AFBD1181A013870470B
:10015C0080B584B000AF4FF470433B6000237B60EC
:10016C000323FB600123BB603B461946164801F094
:10017C004FF84FF470633B6001237B600323FB60FB
:10018C000023BB603B461946104801F041F80122A0
:10019C004FF400610D4801F0CEF901224FF480615B
:1001AC000A4801F0C8F901224FF40071074801F028
:1001BC00C2F901224FF48071044801F0BCF900BF70
:1001CC001037BD4680BD00BF000C01400008014047
:1001DC0080B582B000AF20237B6000224FF4006119
:1001EC00754801F0A8F90A2000F0E0FE4FF4004138
:1001FC00724801F089F90346002B02D131237B6050
:10020C001FE04FF480416D4801F07EF90346002B4E
:10021C0002D132237B6014E04FF40051674801F0A7
:10022C0073F90346002B02D133237B6009E04FF4B2
:10023C008051624801F068F90346002B01D141233B
:10024C007B6001224FF400615B4801F074F90022DD
:10025C004FF48061584801F06EF90A2000F0A6FEB8
:10026C004FF40041554801F04FF90346002B02D1E1
:10027C0034237B601FE04FF48041504801F044F977
:10028C000346002B02D135237B6014E04FF4005160
:10029C004A4801F039F90346002B02D136237B6022
:1002AC0009E04FF48051454801F02EF90346002B2C
:1002BC0001D142237B6001224FF480613E4801F062
:1002CC003AF900224FF400713B4801F034F90A204E
:1002DC0000F06CFE4FF40041384801F015F903466C
:1002EC00002B02D137237B601FE04FF48041334851
:1002FC0001F00AF90346002B02D138237B6014E08D
:10030C004FF400512D4801F0FFF80346002B02D1A9
:10031C0039237B6009E04FF48051284801F0F4F850
:10032C000346002B01D143237B6001224FF4007163
:10033C00214801F000F900224FF480711E4801F0B1
:10034C00FAF80A2000F032FE4FF400411B4801F08D
:10035C00DBF80346002B02D12A237B601FE04FF40D
:10036C008041164801F0D0F80346002B02D130230F
:10037C007B6014E04FF40051104801F0C5F80346BF
:10038C00002B02D123237B6009E04FF480510B48F2
:10039C0001F0BAF80346002B01D144237B60012203
:1003AC004FF48071044801F0C6F87B68DBB2184644
:1003BC000837BD4680BD00BF00080140000C01405D
:1003CC00B0B58AB000AFF860B9607A603B6097F85E
:1003DC00443087F82630B7F84030BB84FB6B3B6267
:1003EC003B8FBB833B68BB617B687B61BB683B61BC
:1003FC0007F11003184600F00EF8FB681D4607F1D4
:10040C0010040FCC0FC594E8030085E80300F868CE
:10041C002837BD46B0BD80B582B000AF78607B6830
:10042C009B7D002B0CD13321786800F07BF83221B6
:10043C00786800F077F82821786800F073F803E00A
:10044C003821786800F06EF80121786800F06AF8BD
:10045C000C21786800F066F80621786800F062F8E4
:10046C0000BF0837BD4680BD80B586B000AF786050
:10047C00396007F10C033A680649184601F012FE80
:10048C0007F10C031946786800F006F800BF18371E
:10049C00BD4680BDBC29000890B585B000AF786022
:1004AC0039600023FB730AE0FB7B3A6813441B782A
:1004BC001946786800F064F8FB7B0133FB73FC7B16
:1004CC003868FFF73DFE03469C42EDD300BF00BFEA
:1004DC001437BD4690BD000080B582B000AF786087
:1004EC000B46FB701346BB70FB78074AD25CBB789B
:1004FC001344DBB2803BDBB21946786800F012F88B
:10050C0000BF0837BD4680BD082A000880B582B000
:10051C0000AF78600121786800F004F800BF08375C
:10052C00BD4680BD80B582B000AF78600B46FB70D5
:10053C007B6898687B689B890022194600F0FBFF5A
:10054C007B689B7D002B11D1FB781B09DBB204224D
:10055C001946786800F042F8FB7803F00F03DBB221
:10056C0004221946786800F039F805E0FB78082277
:10057C001946786800F032F800BF0837BD4680BDD8
:10058C0080B582B000AF78600B46FB707B689868D2
:10059C007B689B890122194600F0CDFF7B689B7D0F
:1005AC00002B11D1FB781B09DBB2042219467868A9
:1005BC0000F014F8FB7803F00F03DBB204221946A9
:1005CC00786800F00BF805E0FB780822194678688B
:1005DC0000F004F800BF0837BD4680BD80B584B07C
:1005EC0000AF78600B46FB701346BB700023FB73A7
:1005FC0019E07B681A68FB7B9B00134418687B68C6
:10060C005A68FB7B5B0013441988FA78FB7B42FA2F
:10061C0003F3DBB203F00103DBB21A4600F08BFFED
:10062C00FB7B0133FB73FA7BBB789A42E1D37B688B
:10063C0018697B689B8A0122194600F07CFF012017
:10064C0000F0B4FC7B6818697B689B8A0022194611
:10065C0000F071FF00BF1037BD4680BD80B584B07F
:10066C0000AF78600023FB600FE0134AFB6852F880
:10067C002330B3F1FF3F05D10F49FB687A6841F88D
:10068C00232005E0FB680133FB60FB68042BECDDE9
:10069C000A48FFF73BFF072200210848FFF71CFF21
:1006AC0000F00EF8034619460448FFF7DDFE00BFC4
:1006BC001037BD4680BD00BF00000020FC000020AC
:1006CC0080B485B000AF0123FB600023BB60042322
:1006DC007B6019E0114A7B6852F82330B3F1FF3F7D
:1006EC000FD00E4A7B6852F82330FA6802FB03F3F2
:1006FC00BA681344BB60FA6813469B0013445B0052
:10070C00FB607B68013B7B607B68002BE2DABB689B
:10071C0018461437BD4680BC704700BF000000204F
:10072C0080B500AFFFF754FD03461A464A4B1A70CA
:10073C004A4B1B68B3F1FF3F40F08180474B0022CE
:10074C001A60454B1B78312B04D10120FFF786FF33
:10075C0031237EE0404B1B78322B04D10220FFF773
:10076C007DFF322375E03C4B1B78332B04D10320E7
:10077C00FFF774FF33236CE0374B1B78342B04D119
:10078C000420FFF76BFF342363E0334B1B78352BCE
:10079C0004D10520FFF762FF35235AE02E4B1B785E
:1007AC00362B04D10620FFF759FF362351E02A4B94
:1007BC001B78372B04D10720FFF750FF372348E075
:1007CC00254B1B78382B04D10820FFF747FF382323
:1007DC003FE0214B1B783A2B04D10920FFF73EFF59
:1007EC00392336E01C4B1B78302B04D10020FFF74B
:1007FC0035FF30232DE0184B1B782A2B01D12A23EF
:10080C0027E0154B1B78232B01D1232321E0124B1E
:10081C001B78412B01D141231BE00F4B1B78422B42
:10082C0001D1422315E00C4B1B78432B01D1432300
:10083C000FE0094B1B78442B0BD1442309E0064BEA
:10084C001B78202B05D1054B4FF0FF321A60FF238C
:10085C00FFE7184680BD00BFA40000201400002054
:10086C00B0B594B004AF00F03FFB00F0F9F800F025
:10087C0061F900F031F96F4B07F120040FCB84E8DC
:10088C000F006D4A07F1180392E8030083E8030098
:10089C006A4C384607F1180207F120010023039334
:1008AC0008230293664B019302230093644BFFF7DA
:1008BC0087FD25463C460FCC0FC594E8030085E820
:1008CC000300012200215D48FFF706FE5B48FFF79D
:1008DC001DFE5C495948FFF7DFFD5848FFF716FE2F
:1008EC00FFF736FC4FF0FF337B634FF0FF33FB63B6
:1008FC0001221021544800F01EFE002200214F4816
:10090C00FFF7EAFD51494D48FFF7C6FDFFF708FF19
:10091C00034687F8333097F83330412B17D14FF01B
:10092C00FF33FB634548FFF7F1FD012210214648D8
:10093C0000F001FE072200214048FFF7CDFDFFF734
:10094C00BFFE034619463D48FFF78EFD45E097F87C
:10095C003330422B16D13948FFF7D8FD0023FB6307
:10096C0000221021384800F0E6FD07220021334810
:10097C00FFF7B2FDFFF7A4FE034619462F48FFF719
:10098C0073FD2AE097F833302A2B0DD12B48FFF753
:10099C00BDFD2F4B00221A800123FB630022102186
:1009AC00294800F0C8FD18E097F83330432B14D1D8
:1009BC002248FFF7ABFD264B00221A800023BB63B5
:1009CC0008E0244ABB6B4FF0FF3142F82310BB6B9D
:1009DC000133BB63BB6B042BF3DDFB6B012B0FD122
:1009EC001B4B1B881C46FFF76BFE03469C4207DB28
:1009FC004FF0FF33FB6301221021134800F09BFDE5
:100A0C00012201210D48FFF767FD114B1B88194688
:100A1C000A48FFF729FDFB6BB3F1FF3F04D10E49E8
:100A2C000648FFF739FD68E70C490448FFF734FD29
:100A3C0063E700BFE0290008F0290008FC00002053
:100A4C0000080140C0290008000C0140C42900081E
:100A5C001401002000000020CC290008D429000833
:100A6C0080B590B000AF07F118032822002118467A
:100A7C0001F010FB3B1D00221A605A609A60DA608C
:100A8C001A610223BB610123BB621023FB620023AA
:100A9C007B6307F11803184600F0CCFE0346002BCD
:100AAC0001D000F0EFF80F237B600023BB60002324
:100ABC00FB6000233B6100237B613B1D002118463A
:100ACC0001F03AF90346002B01D000F0DBF800BF2F
:100ADC004037BD4680BD000080B500AF124B134AB5
:100AEC001A60114B124A5A600F4B00229A600E4B3F
:100AFC000022DA600C4B4FF480421A610A4B002240
:100B0C005A61094B00229A61074B0022DA61064BAD
:100B1C0000221A62044800F049FD0346002B01D064
:100B2C0000F0B0F800BF80BDA800002000540040C9
:100B3C00A086010080B588B000AF07F11003002239
:100B4C001A605A609A60DA60494B9B69484A43F0D4
:100B5C0010039361464B9B6903F01003FB60FB6829
:100B6C00434B9B69424A43F020039361404B9B6982
:100B7C0003F02003BB60BB683D4B9B693C4A43F0D0
:100B8C00040393613A4B9B6903F004037B607B681D
:100B9C00374B9B69364A43F008039361344B9B698E
:100BAC0003F008033B603B6800224FF400513148CE
:100BBC0000F0C1FC002240F60A712F4800F0BBFC8B
:100BCC00002240F613412D4800F0B5FC4FF40053C1
:100BDC003B6101237B610023BB610223FB6107F1B5
:100BEC0010031946234800F013FB01233B61244BEF
:100BFC007B610023BB6107F1100319461E4800F00E
:100C0C0007FB40F60A733B6101237B610023BB6148
:100C1C000223FB6107F110031946174800F0F8FA9C
:100C2C0040F613433B6101237B610023BB6102232C
:100C3C00FB6107F110031946104800F0E9FA4FF474
:100C4C0070433B6100237B610023BB6107F1100300
:100C5C0019460A4800F0DCFA00220021062000F0B8
:100C6C00A0FA062000F0B9FA00BF2037BD4680BDBF
:100C7C00001002400010014000080140000C01402F
:100C8C000000111080B400AF72B600BFFEE7000088
:100C9C0080B485B000AF154B9B69144A43F0010337
:100CAC009361124B9B6903F00103BB60BB680F4B54
:100CBC00DB690E4A43F08053D3610C4BDB6903F0C4
:100CCC0080537B607B680A4B5B68FB60FB6823F09E
:100CDC00E063FB60FB6843F00073FB60044AFB6855
:100CEC00536000BF1437BD4680BC704700100240F3
:100CFC000000014080B58AB000AF786007F11403A2
:100D0C0000221A605A609A60DA607B681B681D4A80
:100D1C00934232D11C4B9B691B4A43F008039361ED
:100D2C00194B9B6903F008033B613B694FF440731B
:100D3C007B611223BB610023FB6107F1140319468D
:100D4C00124800F065FA124B5B687B627B6A43F0D9
:100D5C00E0637B627B6A43F002037B620C4A7B6A32
:100D6C005360094BDB69084A43F40013D361064B0B
:100D7C00DB6903F40013FB60FB6800BF2837BD463A
:100D8C0080BD00BF0054004000100240000C014028
:100D9C000000014080B400AFFEE780B400AFFEE776
:100DAC0080B400AFFEE780B400AFFEE780B400AFC4
:100DBC00FEE780B400AF00BFBD4680BC704780B476
:100DCC0000AF00BFBD4680BC704780B400AF00BF11
:100DDC00BD4680BC704780B500AF00F0CBF800BFBB
:100DEC0080BD000080B500AF0C4B1B680A2B0ADDE0
:100DFC000B4B1B881C339AB2094B1A80074B1B6890
:100E0C000A3B064A1360054B1B680133034A136007
:100E1C00012000F0A9FB00BF80BD00BF180100201D
:100E2C001401002080B586B000AF7860144A154BD1
:100E3C00D31A7B617B693B61134B1B68002B02D17E
:100E4C00114B124A1A60104B1A687B6813443A69AA
:100E5C009A4207D201F0F4F803460C221A604FF0C4
:100E6C00FF3309E0084B1B68FB60074B1A687B6873
:100E7C001344054A1360FB6818461837BD4680BDFD
:100E8C0000280020000400001C0100203801002074
:100E9C0080B400AF00BFBD4680BC70470C480D4904
:100EAC000D4A002302E0D458C4500433C4188C42B9
:100EBC00F9D30A4A0A4C002301E013600432A2421F
:100ECC00FBD3FFF7E5FF01F0C1F8FFF7C9FC704752
:100EDC000000002088000020602A00088800002004
:100EEC0034010020FEE7000080B500AF084B1B6802
:100EFC00074A43F010031360032000F047F90F205A
:100F0C0000F008F8FFF7C4FE0023184680BD00BFB0
:100F1C000020024080B582B000AF7860124B1A6896
:100F2C00124B1B7819464FF47A73B3FBF1F3B2FBF7
:100F3C00F3F3184600F05FF90346002B01D00123B0
:100F4C000EE07B680F2B0AD8002279684FF0FF3037
:100F5C0000F027F9064A7B681360002300E00123A8
:100F6C0018460837BD4680BD180000202000002020
:100F7C001C00002080B400AF054B1B781A46054BB3
:100F8C001B681344034A136000BFBD4680BC704706
:100F9C00200000202001002080B400AF024B1B6811
:100FAC001846BD4680BC70472001002080B584B037
:100FBC0000AF7860FFF7F0FFB8607B68FB60FB6800
:100FCC00B3F1FF3F05D00A4B1B781A46FB6813445C
:100FDC00FB6000BFFFF7E0FF0246BB68D31AFA685C
:100FEC009A42F7D800BF00BF1037BD4680BD00BF86
:100FFC002000002080B485B000AF78607B6803F0DF
:10100C000703FB600C4BDB68BB60BA684FF6FF0351
:10101C001340BB60FB681A02BB68134343F0BF6309
:10102C0043F40033BB60044ABB68D36000BF143781
:10103C00BD4680BC704700BF00ED00E080B400AF3F
:10104C00044BDB681B0A03F007031846BD4680BC43
:10105C00704700BF00ED00E080B483B000AF0346E2
:10106C00FB7197F90730002B0BDBFB7903F01F02A8
:10107C00064997F907305B09012000FA02F241F8A2
:10108C00232000BF0C37BD4680BC704700E100E058
:10109C0080B483B000AF03463960FB7197F9073019
:1010AC00002B0ADB3B68DAB20C4997F907301201C6
:1010BC00D2B20B4483F800230AE03B68DAB2084949
:1010CC00FB7903F00F03043B1201D2B20B441A76E6
:1010DC0000BF0C37BD4680BC704700BF00E100E08C
:1010EC0000ED00E080B489B000AFF860B9607A60C0
:1010FC00FB6803F00703FB61FB69C3F10703042BD7
:10110C0028BF0423BB61FB690433062B02D9FB699E
:10111C00033B00E000237B614FF0FF32BB6902FA16
:10112C0003F3DA43BB681A407B699A404FF0FF31F6
:10113C007B6901FA03F3D9437B680B4013431846D0
:10114C002437BD4680BC704780B582B000AF786054
:10115C007B68013BB3F1807F01D301230FE00A4A86
:10116C007B68013B53600F214FF0FF30FFF790FF7E
:10117C00054B00229A60044B07221A600023184684
:10118C000837BD4680BD00BF10E000E080B582B0DE
:10119C0000AF78607868FFF72DFF00BF0837BD46B9
:1011AC0080BD80B586B000AF0346B9607A60FB7332
:1011BC0000237B61FFF742FF78617A68B968786930
:1011CC00FFF790FF024697F90F3011461846FFF7CC
:1011DC005FFF00BF1837BD4680BD80B582B000AF41
:1011EC000346FB7197F907301846FFF735FF00BF30
:1011FC000837BD4680BD80B582B000AF7860786896
:10120C00FFF7A2FF034618460837BD4680BD000015
:10121C0080B48BB000AF7860396000237B62002310
:10122C003B6261E101227B6A02FA03F3FB613B68DA
:10123C001B68FA691340BB61BA69FB699A4240F0BA
:10124C0050813B685B68974A93425ED0954A9342C3
:10125C0075D8954A934258D0934A93426FD8934A83
:10126C00934252D0914A934269D8914A93424CD0BE
:10127C008F4A934263D88F4A934246D08D4A934209
:10128C005DD8122B2AD8122B59D801A252F823F070
:10129C0017130008F1120008031300084513000887
:1012AC004B1300084B1300084B1300084B1300089A
:1012BC004B1300084B1300084B1300084B1300088A
:1012CC004B1300084B1300084B1300084B1300087A
:1012DC004B130008F91200080D130008764A9342CC
:1012EC0013D02CE03B68DB683B6229E03B68DB6891
:1012FC0004333B6224E03B68DB6808333B621FE04D
:10130C003B68DB680C333B621AE03B689B68002B44
:10131C0002D104233B6213E03B689B68012B05D18F
:10132C0008233B627B68FA691A6109E008233B6277
:10133C007B68FA695A6103E000233B6200E000BF5E
:10134C00BB69FF2B01D87B6801E07B6804337B61B0
:10135C00BB69FF2B02D87B6A9B0002E07B6A083BCF
:10136C009B003B617B691A680F213B6901FA03F30F
:10137C00DB431A40396A3B6901FA03F31A437B6970
:10138C001A603B685B6803F08053002B00F0A98067
:10139C004A4B9B69494A43F001039361474B9B6954
:1013AC0003F00103BB60BB68454A7B6A9B080233B0
:1013BC0052F82330FB607B6A03F003039B000F227F
:1013CC0002FA03F3DB43FA681340FB607B683D4A87
:1013DC0093420DD07B683C4A934207D07B683B4AD2
:1013EC00934201D1022304E0032302E0012300E035
:1013FC0000237A6A02F0030292009340FA681343C6
:10140C00FB602F497B6A9B080233FA6841F8232062
:10141C003B685B6803F48033002B06D02C4B1A68B6
:10142C002B49BB6913430B6006E0294B1A68BB6957
:10143C00DB43274913400B603B685B6803F40033C4
:10144C00002B06D0224B5A682149BB6913434B60D1
:10145C0006E01F4B5A68BB69DB431D4913404B60C8
:10146C003B685B6803F48013002B06D0184B9A681A
:10147C001749BB6913438B6006E0154B9A68BB692F
:10148C00DB43134913408B603B685B6803F4001328
:10149C00002B1FD00E4BDA680D49BB691343CB6090
:1014AC001FE000BF000032100000311000002210BD
:1014BC00000021100000121000001110001002405A
:1014CC000000014000080140000C014000100140E8
:1014DC00000401400B4BDA68BB69DB43094913403C
:1014EC00CB607B6A01337B623B681A687B6A22FAA9
:1014FC0003F3002B7FF496AE00BF00BF2C37BD4624
:10150C0080BC70470004014080B485B000AF7860A7
:10151C000B467B807B689A687B881340002B02D03B
:10152C000123FB7301E00023FB73FB7B184614378C
:10153C00BD4680BC704780B483B000AF78600B466A
:10154C007B8013467B707B78002B03D07A887B687A
:10155C001A6103E07B881A047B681A6100BF0C37A0
:10156C00BD4680BC7047000080B582B000AF03461A
:10157C00FB80084B5A69FB881340002B06D0054AA8
:10158C00FB885361FB88184600F006F800BF08374B
:10159C00BD4680BD0004014080B483B000AF03465B
:1015AC00FB8000BF0C37BD4680BC704780B584B053
:1015BC0000AF78607B68002B01D101232BE17B68A5
:1015CC0093F83D30DBB2002B06D17B68002283F808
:1015DC003C207868FFF78EFB7B68242283F83D2043
:1015EC007B681B681A687B681B6822F001021A6012
:1015FC007B681B681A687B681B6842F400421A609F
:10160C007B681B681A687B681B6822F400421A60AE
:10161C0000F0E4FCF8607B685B68814A934207D871
:10162C00FB68804A934294BF01230023DBB206E09F
:10163C00FB687D4A934294BF01230023DBB2002B4D
:10164C0001D00123E7E0FB68784AA2FB03239B0C43
:10165C00BB607B681B685B6823F03F017B681B6881
:10166C00BA680A435A607B681B681B6A23F03F0107
:10167C007B685B686A4A934202D8BB68013309E015
:10168C00BB684FF4967202FB03F3694AA2FB032377
:10169C009B0901337A6812680B4313627B681B68E1
:1016AC00DB6923F44F4222F0FF027B685B685C49E4
:1016BC008B4219D8FB68591E7B685B685B00B1FBD9
:1016CC00F3F3591C40F6FC730B40002B0AD0FB685B
:1016DC00591E7B685B685B00B1FBF3F30133C3F30A
:1016EC000B0351E004234FE07B689B68002B11D166
:1016FC00FB68581E7B6859680B465B000B44B0FBBB
:10170C00F3F30133C3F30B03002B0CBF01230023B2
:10171C00DBB212E0FB68581E7B6859680B469B00D5
:10172C000B4499000B44B0FBF3F30133C3F30B03ED
:10173C00002B0CBF01230023DBB2002B01D00123B3
:10174C0022E07B689B68002B0ED1FB68581E7B68DF
:10175C0059680B465B000B44B0FBF3F30133C3F346
:10176C000B0343F400430FE0FB68581E7B68596879
:10177C000B469B000B4499000B44B0FBF3F3013375
:10178C00C3F30B0343F44043796809681343CB61FB
:10179C007B681B681B6823F0C0017B68DA697B6877
:1017AC001B6A1A437B681B680A431A607B681B68B8
:1017BC009B6823F4034323F0FF037A6811697A686A
:1017CC00D26811437A6812680B4393607B681B687C
:1017DC00DB6823F0FF017B685A697B689B691A43BD
:1017EC007B681B680A43DA607B681B681A687B6835
:1017FC001B6842F001021A607B6800221A647B6845
:10180C00202283F83D207B6800221A637B6800222B
:10181C0083F83E20002318461037BD4680BD00BF1C
:10182C00A08601007F841E00FF083D0083DE1B4361
:10183C00D34D621080B586B000AF78607B68002B0A
:10184C0001D1012372E27B681B6803F00103002BBA
:10185C0000F08780924B5B6803F00C03042B0CD0D8
:10186C008F4B5B6803F00C03082B12D18C4B5B681D
:10187C0003F48033B3F5803F0BD1894B1B6803F421
:10188C000033002B6CD07B685B68002B68D1012384
:10189C004CE27B685B68B3F5803F06D1804B1B68DC
:1018AC007F4A43F4803313602EE07B685B68002B27
:1018BC000CD17B4B1B687A4A23F480331360784B32
:1018CC001B68774A23F4802313601DE07B685B68F8
:1018DC00B3F5A02F0CD1724B1B68714A43F48023D3
:1018EC0013606F4B1B686E4A43F4803313600BE03C
:1018FC006B4B1B686A4A23F480331360684B1B687C
:10190C00674A23F4802313607B685B68002B13D039
:10191C00FFF742FB386108E0FFF73EFB02463B69EC
:10192C00D31A642B01D9032300E25D4B1B6803F42B
:10193C000033002BF0D014E0FFF72EFB386108E0E9
:10194C00FFF72AFB02463B69D31A642B01D9032308
:10195C00ECE1534B1B6803F40033002BF0D100E097
:10196C0000BF7B681B6803F00203002B63D04C4B59
:10197C005B6803F00C03002B0BD0494B5B6803F046
:10198C000C03082B1CD1464B5B6803F48033002BF3
:10199C0016D1434B1B6803F00203002B05D07B6868
:1019AC001B69012B01D00123C0E13D4B1B6823F0C7
:1019BC00F8027B685B69DB00394913430B603AE042
:1019CC007B681B69002B20D0364B01221A60FFF775
:1019DC00E3FA386108E0FFF7DFFA02463B69D31AF5
:1019EC00022B01D90323A1E12D4B1B6803F0020349
:1019FC00002BF0D02A4B1B6823F0F8027B685B6944
:101A0C00DB00274913430B6015E0264B00221A60BC
:101A1C00FFF7C2FA386108E0FFF7BEFA02463B69ED
:101A2C00D31A022B01D9032380E11D4B1B6803F051
:101A3C000203002BF0D17B681B6803F00803002B1A
:101A4C003AD07B689B69002B19D0174B01221A6086
:101A5C00FFF7A2FA386108E0FFF79EFA02463B69ED
:101A6C00D31A022B01D9032360E10D4B5B6A03F0FF
:101A7C000203002BF0D0012000F0C4FA1CE00A4B4A
:101A8C0000221A60FFF788FA38610FE0FFF784FA3A
:101A9C0002463B69D31A022B08D9032346E100BF47
:101AAC00001002400000424280044242924B5B6AAA
:101ABC0003F00203002BE9D17B681B6803F00403DD
:101ACC00002B00F0A6800023FB758B4BDB6903F029
:101ADC008053002B0DD1884BDB69874A43F0805330
:101AEC00D361854BDB6903F08053BB60BB6801237A
:101AFC00FB75824B1B6803F48073002B18D17F4B52
:101B0C001B687E4A43F480731360FFF745FA386113
:101B1C0008E0FFF741FA02463B69D31A642B01D95E
:101B2C00032303E1754B1B6803F48073002BF0D087
:101B3C007B68DB68012B06D16F4B1B6A6E4A43F046
:101B4C00010313622DE07B68DB68002B0CD16A4B20
:101B5C001B6A694A23F001031362674B1B6A664ACE
:101B6C0023F0040313621CE07B68DB68052B0CD1AB
:101B7C00614B1B6A604A43F0040313625E4B1B6AA1
:101B8C005D4A43F0010313620BE05B4B1B6A5A4A3C
:101B9C0023F001031362584B1B6A574A23F00403CA
:101BAC0013627B68DB68002B15D0FFF7F5F9386101
:101BBC000AE0FFF7F1F902463B69D31A41F2883289
:101BCC00934201D90323B1E04B4B1B6A03F0020390
:101BDC00002BEED014E0FFF7DFF938610AE0FFF7D5
:101BEC00DBF902463B69D31A41F28832934201D9A0
:101BFC0003239BE0404B1B6A03F00203002BEED146
:101C0C00FB7D012B05D13C4BDB693B4A23F0805318
:101C1C00D3617B68DB69002B00F08780364B5B68F7
:101C2C0003F00C03082B61D07B68DB69022B46D1D7
:101C3C00334B00221A60FFF7AFF9386108E0FFF769
:101C4C00ABF902463B69D31A022B01D903236DE091
:101C5C00294B1B6803F00073002BF0D17B681B6AC7
:101C6C00B3F5803F08D1244B5B6823F400327B68CA
:101C7C009B68214913434B601F4B5B6823F4741220
:101C8C007B68196A7B685B6A0B431B4913434B6087
:101C9C001B4B01221A60FFF77FF9386108E0FFF750
:101CAC007BF902463B69D31A022B01D903233DE091
:101CBC00114B1B6803F00073002BF0D035E0104B78
:101CCC0000221A60FFF768F9386108E0FFF764F941
:101CDC0002463B69D31A022B01D9032326E0064B9B
:101CEC001B6803F00073002BF0D11EE07B68DB69EE
:101CFC00012B07D1012319E00010024000700040B5
:101D0C00600042420B4B5B68FB60FB6803F4803263
:101D1C007B681B6A9A4206D1FB6803F470127B68DD
:101D2C005B6A9A4201D0012300E000231846183761
:101D3C00BD4680BD0010024080B584B000AF786015
:101D4C0039607B68002B01D10123D0E06A4B1B6802
:101D5C0003F007033A689A4210D9674B1B6823F0CB
:101D6C00070265493B6813430B60634B1B6803F028
:101D7C0007033A689A4201D00123B8E07B681B68DC
:101D8C0003F00203002B20D07B681B6803F00403D4
:101D9C00002B05D0594B5B68584A43F4E063536001
:101DAC007B681B6803F00803002B05D0534B5B6862
:101DBC00524A43F460535360504B5B6823F0F0027B
:101DCC007B689B684D4913434B607B681B6803F031
:101DDC000103002B40D07B685B68012B07D1474B7C
:101DEC001B6803F40033002B15D101237FE07B68C3
:101DFC005B68022B07D1414B1B6803F00073002B6F
:101E0C0009D1012373E03D4B1B6803F00203002B47
:101E1C0001D101236BE0394B5B6823F003027B6833
:101E2C005B68364913434B60FFF7B6F8F8600AE07D
:101E3C00FFF7B2F80246FB68D31A41F2883293429C
:101E4C0001D9032353E02D4B5B6803F00C027B6834
:101E5C005B689B009A42EBD1274B1B6803F007038E
:101E6C003A689A4210D2244B1B6823F0070222498D
:101E7C003B6813430B60204B1B6803F007033A6865
:101E8C009A4201D0012332E07B681B6803F0040303
:101E9C00002B08D0194B5B6823F4E0627B68DB688D
:101EAC00164913434B607B681B6803F00803002B37
:101EBC0009D0124B5B6823F460527B681B69DB0012
:101ECC000E4913434B6000F021F802460B4B5B6844
:101EDC001B0903F00F030A49CB5C22FA03F3094AEE
:101EEC001360094B1B681846FFF714F800231846BB
:101EFC001037BD4680BD00BF0020024000100240DC
:101F0C000C2A0008180000201C00002090B48AB095
:101F1C0000AF294B3C1D0FCB84E80F0040F201238E
:101F2C003B800023FB610023BB6100237B62002309
:101F3C007B6100233B62214B5B68FB61FB6903F017
:101F4C000C03042B02D0082B03D02BE01C4B3B6260
:101F5C002BE0FB699B0C03F00F0328333B4413F875
:101F6C00243C7B61FB6903F48033002B12D0134BB0
:101F7C005B685B0C03F0010328333B4413F8283CEB
:101F8C00BB617B690E4A03FB02F2BB69B2FBF3F344
:101F9C007B6204E07B690B4A02FB03F37B627B6A86
:101FAC003B6202E0064B3B6200BF3B6A1846283797
:101FBC00BD4690BC704700BFF829000800100240D5
:101FCC0000127A0000093D0080B400AF024B1B6880
:101FDC001846BD4680BC70471800002080B500AF85
:101FEC00FFF7F2FF0246054B5B681B0A03F0070381
:101FFC000349CB5C22FA03F3184680BD0010024063
:10200C001C2A000880B485B000AF78600A4B1B68AE
:10201C000A4AA2FB03235B0A7A6802FB03F3FB6008
:10202C0000BFFB685A1EFA60002BF9D100BF00BF3D
:10203C001437BD4680BC704718000020D34D621089
:10204C00014B1868704700BF2400002070B50026B3
:10205C000C4D0D4C641BA410A64209D100F09CFC45
:10206C0000260A4D0A4C641BA410A64205D170BD73
:10207C0055F8043B98470136EEE755F8043B984772
:10208C000136F2E7582A0008582A0008582A000896
:10209C005C2A000803460244934200D1704703F8BF
:1020AC00011BF9E70EB46FF0004100B59CB01DABFD
:1020BC0002900690079104910848094953F8042BA3
:1020CC000591006802A9019300F068F80022029BB8
:1020DC001A701CB05DF804EB03B0704724000020AC
:1020EC000802FFFF2DE9F0478E6882469E420C469F
:1020FC0090461F4638D88A8912F4906F32D02568E2
:10210C0009690133A5EB010965694B4405EB4505EC
:10211C0005EBD5756D109D4238BF1D46530531D565
:10212C00294600F06FFB064650B90C234FF0FF30E8
:10213C00CAF80030A38943F04003A381BDE8F087BF
:10214C004A46216900F0CEFAA38923F4906343F048
:10215C008003A38126614E4426603E466561A5EB53
:10216C000905A560BE4200D93E463246414620686C
:10217C0000F0C6FAA36800209B1BA36023683344BD
:10218C002360DBE72A4600F0B1FB06460028E1D1CC
:10219C005046216900F0CEFAC7E700002DE9F04F58
:1021AC0098468B8907461B060D4614469DB00ED5E6
:1021BC000B6963B9402100F025FB2860286120B928
:1021CC000C233B604FF0FF30D1E040236B610023C8
:1021DC00099320238DF8293030234FF00109CDF8D5
:1021EC000C80DFF8A4818DF82A3023469A4613F828
:1021FC00012B0AB1252AF9D1BAEB040B0BD05B46A3
:10220C00224629463846FFF76DFF013000F0AA80C0
:10221C00099A5A4409929AF80030002B00F0A280D7
:10222C0000234FF0FF32CDE905230AF1010A049394
:10223C0007938DF853301A935446052214F8011B5A
:10224C00514800F041FA049AD8B9D00644BF202373
:10225C008DF85330110744BF2B238DF853309AF867
:10226C0000302A2B15D0544600204FF00A0C079A48
:10227C00214611F8013B303B092B4ED9B0B10792E6
:10228C0014E0A0EB080309FA03F31343A2460493EA
:10229C00D2E7039B191D1B680391002BBBBF5B424C
:1022AC0042F0020207930793B8BF049223782E2BB7
:1022BC000CD163782A2B35D1039B02341A1D1B6871
:1022CC000392002BB8BF4FF0FF330593DFF8BCA08F
:1022DC0003225046217800F0F7F940B14023A0EBDF
:1022EC000A0003FA00F0049B01340343049314F82E
:1022FC00011B062226488DF8281000F0E5F900286D
:10230C0038D0244B1BBB039B073323F00703083344
:10231C000393099B3344099367E70C4601200CFB9C
:10232C000232A5E700234FF00A0C1946013405933D
:10233C00204610F8012B303A092A03D9002BC5D0BE
:10234C000591C3E7044601230CFB0121F0E703AB25
:10235C0000932A463846104B04A9AFF30080421C68
:10236C000646D6D1AB895B063FF52CAF09981DB05C
:10237C00BDE8F08F03AB00932A463846064B04A900
:10238C0000F07CF8EBE700BF242A00082A2A00089A
:10239C002E2A000800000000F12000082DE9F0476B
:1023AC00164699468A680B6907469342B8BF13468E
:1023BC00336091F843200C46DDF820800AB10133DC
:1023CC0033602368990642BF336802333360256853
:1023DC0015F0060506D104F1190AE36832689B1A58
:1023EC00AB4228DC94F84320131E226818BF01234B
:1023FC0092062DD44946384604F14302C0470130B9
:10240C0020D02368E56803F00603042B18BF0025D1
:10241C0032684FF00006A36808BFAD1A226908BFE6
:10242C0025EAE5759342C4BF9B1AED181A34B542E0
:10243C001AD1002008E00123524649463846C047CD
:10244C00013003D14FF0FF30BDE8F0870135C4E710
:10245C003020E11881F843005A1C94F845102244AE
:10246C00023382F84310C5E7012322464946384619
:10247C00C0470130E6D00136D9E700002DE9FF470F
:10248C000F7E9146782F80460C469A460C9D01F1A2
:10249C00430207D8622F0AD8002F00F0D980582F9A
:1024AC0000F0A48004F1420584F842703AE0A7F1F0
:1024BC006303152BF6D801A151F823F02125000850
:1024CC0035250008B1240008B1240008B124000807
:1024DC00B124000835250008B1240008B1240008F7
:1024EC00B1240008B1240008432600086525000823
:1024FC0025260008B1240008B12400086526000830
:10250C00B124000865250008B1240008B124000896
:10251C002D2600082B681A1D1B682A6004F1420541
:10252C0084F842300123A4E020682968060601F1F2
:10253C0004030AD50E682B60002E03DA2D23764295
:10254C0084F843300A235E4819E00E6810F0400FFF
:10255C002B6018BF36B2EFE72B682068191D296075
:10256C00010601D51E6802E04606FBD51E886F2FBA
:10257C000CBF08230A235248002184F843106568D5
:10258C00002DA8BF2168A560A4BF21F00401216023
:10259C000EB9002D4DD01546B6FBF3F103FB1167B8
:1025AC00C75D05F8017D3746BB420E46F4D9082BB2
:1025BC000BD12368DE0708D5236961689942DEBF19
:1025CC00302305F8013C05F1FF35521B22614B46C7
:1025DC0021464046CDF800A003AAFFF7DFFE0130EC
:1025EC004CD14FF0FF3004B0BDE8F087344881F88F
:1025FC0045702968236851F8046B29601D0614D5B1
:10260C00DF0744BF43F0200323601EB9236823F087
:10261C00200323601023AFE7236843F020032360DB
:10262C007823284884F84530E3E7590648BFB6B20A
:10263C00E6E71546BBE72B682668181D616928601C
:10264C0035061B6801D5196002E07006FBD51980B0
:10265C00002315462361BAE72B6800211A1D2A6056
:10266C001D686268284600F02FF808B1401B6060B6
:10267C0063682361002384F84330A8E72A4649465F
:10268C0040462369D0470130ABD023689B0713D455
:10269C00E068039B9842B8BF1846A4E70123324672
:1026AC0049464046D04701309BD00135E368039939
:1026BC005B1AAB42F2DCEBE7002504F11906F5E7F7
:1026CC00352A0008462A0008034610B5C9B2024450
:1026DC009342184601D1002003E0047801338C4268
:1026EC00F6D110BD0A44914200F1FF3300D170477E
:1026FC0010B511F8014B914203F8014FF9D110BDFF
:10270C00884210B501EB020402D98442234607D853
:10271C00431EA14208D011F8012B03F8012FF8E752
:10272C00014602448A4200D110BD13F8014D02F853
:10273C00014DF7E738B50546002940D051F8043C67
:10274C000C1F002BB8BFE41800F010F91C4A1368DA
:10275C0033B9636014602846BDE8384000F00CB90A
:10276C00A34208D9206821188B4201BF19685B6805
:10277C0009182160EDE71A465B680BB1A342FAD940
:10278C0011685018A0420BD12068014450188342A4
:10279C001160E0D118685B68014411605360DAE79E
:1027AC0002D90C232B60D6E7206821188B4201BF7D
:1027BC0019685B680918216063605460CBE738BD09
:1027CC002401002070B50E4E0C463168054611B937
:1027DC0000F0BCF830602146284600F0B7F8431CE6
:1027EC000AD0C41C24F00304A04207D0211A2846A6
:1027FC0000F0ACF8013001D14FF0FF34204670BD31
:10280C00280100202DE9F041CD1C25F003050835E9
:10281C000C2D38BF0C25002D074601DBA94205D92C
:10282C000C2300263B603046BDE8F0812E4E00F0B4
:10283C009DF833681C4634BB29463846FFF7C2FF67
:10284C00431C04464DD134682646002E40D12368E3
:10285C003146384604EB030800F078F880453AD14D
:10286C00216803356D1A25F0030508350C2D38BF8A
:10287C000C2538462946FFF7A5FF01302BD02368DD
:10288C002B4423600EE02268521B1ED40B2A16D94F
:10289C006119A342256018BF5960636808BF316095
:1028AC0062514B60384604F10B0600F065F826F0D7
:1028BC000706231DF21AB6D09B1BA350B3E7626820
:1028CC00A3420CBF32605A60ECE723466468B2E75F
:1028DC0034467668B9E70C2338463B6000F04CF878
:1028EC00A1E72560DEE700BF240100202DE9F041BF
:1028FC00804614460E4621B91146BDE8F041FFF75B
:10290C0081BF2AB9FFF716FF25462846BDE8F0819E
:10291C0000F038F88442074602D8B4EB500F12D8B6
:10292C0021464046FFF76EFF05460028EDD0BC421D
:10293C002246314628BF3A46FFF7D4FE3146404680
:10294C00FFF7F8FEE1E73546DFE7000038B5002376
:10295C00054D044608462B60FEF764FA431C02D171
:10296C002B6803B1236038BD2C010020014800F016
:10297C0011B800BF30010020014800F00CB800BFB6
:10298C003001002051F8043C181F002BBCBF0B5821
:10299C00C018704770477047F8B500BFF8BC08BC4A
:1029AC009E467047F8B500BFF8BC08BC9E46704701
:1029BC00256400004C4344004B6163206D4C3A008D
:1029CC0020202053746F7000202020537461727487
:1029DC0000000000000C0140000C0140000C014004
:1029EC00000C014001000200000400080203040571
:1029FC00060708090A0B0C0D0E0F101000401050A2
:102A0C000000000000000000010203040607080992
:102A1C000000000001020304232D302B2000686C01
:102A2C004C006566674546470030313233343536E5
:102A3C00373839414243444546003031323334351E
:0C2A4C003637383961626364656600004B
:042A58003101000840
:042A5C000D01000860
:102A6000FFFFFFFFFFFFFFFFFFFFFFFFFFFFFFFF76
:102A7000FFFFFFFFFFFFFFFF0024F4001000000036
:102A800001000000280000200000000000000000FD
:102A90000000000000000000000000000000000036
:102AA0000000000000000000000000000000000026
:102AB0000000000000000000000000000000000016
:102AC0000000000000000000000000000000000006
:102AD00000000000000000000000000000000000F6
:082AE0000000000000000000EE
:0400000508000EA938
:00000001FF
